:100000000C945F020C947E050C9457050C948702A7
:100010000C9487020C9487020C9487020C9487023C
:100020000C9487020C9487020C9487020C9487022C
:100030000C9487020C9487020C9487020C9487021C
:100040000C940D050C9487020C94DB040C94B504FD
:100050000C9487020C9487020C9487020C948702FC
:100060000C9487020C9487026F07A508A508C307A4
:10007000F6071008A5080B08A5086008A5082908B8
:1000800066084164766572746973696E672073747B
:10009000617274656400446973636F6E6E65637446
:1000A0006564206F72206164766572746973696E2D
:1000B000672074696D6564206F757400436F6E6EA0
:1000C00065637465642100205D00205B0020627917
:1000D0007465733A20005265636569766564200033
:1000E000202050697065204572726F7220436F64E2
:1000F000653A2030780041434920457674205069A4
:100100007065204572726F723A20506970652023C5
:100110003A0045767420436D6420726573706F6E8B
:10012000653A204572726F722E2041726475696E55
:100130006F20697320696E20616E207768696C6535
:100140002831293B206C6F6F700041434920436F79
:100150006D6D616E6420004572726F7220696E2051
:1001600041434920536574757000002C2000000045
:100170000000250028002B000000000800020100FC
:100180000003040700000000000000000000000061
:10019000240027002A0001020408102040800102E8
:1001A00004081020010204081020040404040404BC
:1001B0000404020202020202030303030303000712
:1001C000060000030241D70000000000000000000C
:1001D000000000000000000000000000000000001F
:1001E0001F061000000000000000040004010100D0
:1001F0000006000090000000000000000000000069
:10020000001F06101C01020000000000000000009A
:100210000000000000000000140000001403900122
:1002200064001F06103802FF02580005000000009D
:1002300000000000000000100000000000000000AE
:10024000000000050610540000000000000000003F
:10025000000000000000000000000000000000009E
:10026000000000001F062000040402020001280014
:100270000100180404050500022803010E03000014
:100280002A041407001F06201C0400032A0001553D
:1002900041525469637304040505000428030102F4
:1002A0000500012A06001F06203804030200052A63
:1002B00001010000040405050006280301020700EF
:1002C000042A06040908001F06205400072A040116
:1002D0000600120000000A000404020200082800C0
:1002E00001011804041010001F06207000092800E6
:1002F000019ECADC240EE5A9E093F3A3B5010040FA
:100300006E04041313000A28001F06208C03010446
:100310000B009ECADC240EE5A9E093F3A3B502000E
:10032000406E44101400000B00001F0620A80202BB
:1003300000000000000000000000000000000000BD
:100340000000000004041313000C001F0620C42842
:100350000301100D009ECADC240EE5A9E093F3A36F
:10036000B50300406E14001400000D001F0620E0CD
:100370000003020000000000000000000000000078
:10038000000000000000004614030200001F0620C9
:10039000FC0E290201000004040202000F280001E3
:1003A0000A180404050500102803010211001906AB
:1003B000211800272A0404090100112A27010A0034
:1003C0000000000000000000000000000000001F0E
:1003D0000640002A00010080040003000000020221
:1003E000000804000B0000000302000204000D00DE
:1003F0000F06401C000E2A27010080040011000097
:1004000000000000000000000000000000000000EC
:1004100000130650009ECADC240EE5A9E093F3A366
:10042000B50000406E000000000000000000000069
:1004300000000F0660000000000000000000000047
:1004400000000000000000000000000000000000AC
:100450000000000606F00003D38800000000000042
:10046000000000000000000000000000000000008C
:10047000000000416461667275697420426C7565A4
:100480006672756974204C6F7720456E6572677966
:10049000206E5246383030312043616C6C626163AB
:1004A0006B204563686F2064656D6F00436D642049
:1004B00051756575652046756C6C00005F0D1124E3
:1004C0001FBECFEFD8E0DEBFCDBF11E0A0E0B1E0AE
:1004D000E2EAFCE102C005900D92AA34B107D9F717
:1004E00025E0AAE4B1E001C01D92AB35B207E1F707
:1004F00012E0CFE5D2E004C02197FE010E943B0E3E
:10050000CE35D107C9F70E94860B0C944F0E0C9480
:100510000000FC01538D448D252F30E0842F90E0A6
:10052000821B930B541710F0CF96089501970895EE
:10053000FC01918D828D981761F0828DDF01A80FEB
:10054000B11D5D968C91928D9F5F9F73928F90E00D
:1005500008958FEF9FEF0895FC01918D828D98177C
:1005600031F0828DE80FF11D858D90E008958FEFB9
:100570009FEF0895FC01918D228D892F90E0805C82
:100580009F4F821B91098F739927089582E594E00C
:100590000E94BA0221E0892B09F420E0822F0895FD
:1005A000FC01848DDF01A80FB11DA35ABF4F2C9110
:1005B000848D90E001968F739927848FA689B789DF
:1005C0002C93A089B1898C9180648C93938D848DB8
:1005D000981306C00288F389E02D80818F7D808387
:1005E0000895EF92FF920F931F93CF93DF93EC0147
:1005F00081E0888F9B8D8C8D981305C0E889F989DF
:10060000808185FD24C0F62E0B8D10E00F5F1F4FFB
:100610000F731127E02E8C8DE8120CC00FB607FC6B
:10062000FACFE889F989808185FFF5CFCE010E9454
:10063000D002F1CF8B8DFE01E80FF11DE35AFF4F81
:10064000F0820B8FEA89FB898081806207C0EE8986
:10065000FF896083E889F98980818064808381E0F3
:1006600090E0DF91CF911F910F91FF90EF9008954F
:10067000CF93DF93EC01888D8823C9F0EA89FB8949
:10068000808185FD05C0A889B9898C9186FD0FC040
:100690000FB607FCF5CF808185FFF2CFA889B98915
:1006A0008C9185FFEDCFCE010E94D002E7CFDF9184
:1006B000CF91089580E090E0892B29F00E94C60236
:1006C00081110C940000089590E0FC01E858FE4F61
:1006D0003491FC01EA56FE4F2491FC01E655FE4F91
:1006E000E491EE2309F43BC0332339F1333091F028
:1006F00038F43130A9F0323001F584B58F7D12C065
:10070000373091F03830A1F03430B9F48091800066
:100710008F7D03C0809180008F77809380000DC013
:1007200084B58F7784BD09C08091B0008F7703C0F6
:100730008091B0008F7D8093B000F0E0EE0FFF1F3E
:10074000E259FE4FA591B4918FB7F894EC916111E5
:1007500003C020952E2301C02E2B2C938FBF08950C
:10076000CF93DF9390E0FC01EA56FE4F2491FC0109
:10077000E655FE4F8491882361F190E0880F991F20
:10078000FC01E457FE4FC591D491FC01E259FE4FA4
:10079000A591B491611109C09FB7F8948881209503
:1007A00082238883EC912E230BC0623061F49FB7C3
:1007B000F8943881822F809583238883EC912E2BA7
:1007C0002C939FBF06C08FB7F894E8812E2B288307
:1007D0008FBFDF91CF9108953FB7F8948091B30117
:1007E0009091B401A091B501B091B60126B5A89B36
:1007F00005C02F3F19F00196A11DB11D3FBFBA2FB3
:10080000A92F982F8827820F911DA11DB11DBC0112
:10081000CD0142E0660F771F881F991F4A95D1F7D7
:1008200008958F929F92AF92BF92CF92DF92EF92F4
:10083000FF926B017C010E94EC034B015C01C1142F
:10084000D104E104F104F1F00E94EC03DC01CB01DE
:1008500088199909AA09BB09883E9340A105B105E9
:1008600070F321E0C21AD108E108F10888EE880E81
:1008700083E0981EA11CB11CC114D104E104F10451
:1008800019F7DDCFFF90EF90DF90CF90BF90AF9042
:100890009F908F900895089508952091EF043091CE
:1008A000F0048091F1049091F2042817390749F07F
:1008B000E091F104F091F204E65BFE4F808190E05C
:1008C00008958FEF9FEF08952091EF043091F00489
:1008D0008091F1049091F20428173907E9F0E09132
:1008E000F104F091F204E65BFE4F80812091F10467
:1008F0003091F2042F5F3F4F3093F2042093F104C4
:100900002091F1043091F2042F7333273093F204D5
:100910002093F10490E008958FEF9FEF0895809168
:10092000EF049091F0042091F1043091F204821BC5
:10093000930B8F7399270895089580E090E00895B0
:10094000853839F0863841F0813861F462E870E02A
:1009500005C06CEB70E002C066E970E082E594E0EF
:100960000C941E0B08950E94410E1F920F920FB619
:100970000F9211242F933F934F935F936F937F9325
:100980008F939F93AF93BF93EF93FF9382E594E090
:100990000E94D002FF91EF91BF91AF919F918F91F3
:1009A0007F916F915F914F913F912F910F900FBE6B
:1009B0000F901F9018951F920F920FB60F9211244F
:1009C0002F938F939F93EF93FF93E0916204F091A5
:1009D00063048081E0916804F091690482FD12C093
:1009E000908180916B048F5F8F7320916C048217CC
:1009F00051F0E0916B04F0E0EE5AFB4F958F80933D
:100A00006B0401C08081FF91EF919F918F912F9195
:100A10000F900FBE0F901F9018951F920F920FB658
:100A20000F9211242F933F938F939F93AF93BF9374
:100A30008091AF019091B001A091B101B091B2014C
:100A40003091AE0123E0230F2D3720F40196A11D34
:100A5000B11D05C026E8230F0296A11DB11D2093EC
:100A6000AE018093AF019093B001A093B101B09318
:100A7000B2018091B3019091B401A091B501B09100
:100A8000B6010196A11DB11D8093B3019093B401ED
:100A9000A093B501B093B601BF91AF919F918F9193
:100AA0003F912F910F900FBE0F901F9018951F929E
:100AB0000F920FB60F9211242F933F934F935F9392
:100AC0006F937F938F939F93AF93BF93EF93FF9316
:100AD000E0910E01F0910F010995FF91EF91BF9107
:100AE000AF919F918F917F916F915F914F913F91C6
:100AF0002F910F900FBE0F901F9018951F920F927D
:100B00000FB60F9211242F933F934F935F936F93E0
:100B10007F938F939F93AF93BF93EF93FF93E09156
:100B20000C01F0910D010995FF91EF91BF91AF91EB
:100B30009F918F917F916F915F914F913F912F91F5
:100B40000F900FBE0F901F9018952091F404022E65
:100B5000000C330B2330310529F022303105C1F46C
:100B600030E001C031E02DB3882341F081E090E016
:100B700001C0880F3A95EAF7822B08C081E090E027
:100B800001C0880F3A95EAF7809582238DBB0895BE
:100B9000FFCF0F931F93CF93DF93CDB7DEB7A1970E
:100BA0000FB6F894DEBF0FBECDBF83B78E7F83BF75
:100BB000E091BA01E23070F4E13011F0E89801C040
:100BC000E998F0E0EE0FFF1FE45FFE4F8BE494E046
:100BD000918380838091B901882399F02FB7F8948D
:100BE0008091B901813059F48DB38093AD019DB3EB
:100BF0008091B801809589238DBB2FBF02C02093BF
:100C0000AD0181E78CBD81E08DBD60E08091F50490
:100C10000E9464038091C3029091C402891709F471
:100C2000ACC090E021E2289FF001299FF00D112433
:100C3000E554FE4FDE01119601900D922A95E1F7E1
:100C40000196877099278093C3028A818EBD000028
:100C50000DB407FEFDCF8EB58093C5028B818EBD8E
:100C600000000DB407FEFDCF8EB58093C6029A81B9
:100C7000992349F0292F30E0482F50E042175307BD
:100C800014F48FEF890F803208F08FE1A7ECB2E007
:100C90009E012C5F3F4FF9019E2F921B981748F43D
:100CA00091919EBD00000DB407FEFDCF9EB59D93B2
:100CB000F3CF61E08091F5040E9464038091B90153
:100CC000882361F09FB7F8942091B9018091AD011C
:100CD000213019F48DBB9FBF01C08FBF83B78160E6
:100CE00083BF8091BA010E94FB099091C302809159
:100CF000C402981729F060E08091F5040E94640313
:100D00004091C6024423D9F120910C0430E08901BE
:100D10000F5F1F4F0770112780910B04801761F13F
:100D200051E2529FC001539F900D1124FC01ED5FD1
:100D3000FC4F108250E04F5F5F4F66EC72E08C5FBB
:100D40009C4F0E94460E00930C04F89480910C0472
:100D50008F5F877090910B047894891310C080E0A6
:100D6000A1960FB6F894DEBF0FBECDBFDF91CF9135
:100D70001F910F910C94A505FFCF1A8266CFA19603
:100D80000FB6F894DEBF0FBECDBFDF91CF911F919C
:100D90000F9108950F931F93CF93DF938C01FC0164
:100DA000D1814D2F50E060E070E02AE082E594E0D0
:100DB0000E94D50A64E371E082E594E00E943B0A58
:100DC000C0E0F801EC0FF11D418150E060E070E0FF
:100DD00020E182E594E00E94D50A6BE671E082E5AD
:100DE00094E00E94170ACF5FDC1758F76AE671E0BB
:100DF00082E594E0DF91CF911F910F910C941E0B2F
:100E00000F931F93CF93DF93FC0141814032C8F5CC
:100E10008C012091C40230E0E9012196C770DD27E2
:100E20008091C3028C17C1F051E2529FC001539FC1
:100E3000900D1124FC01E554FE4F108250E04F5FED
:100E40005F4FB8016F5F7F4F84549E4F0E94460EE4
:100E5000C093C402C1E001C0C0E0809102038823B6
:100E600049F067E371E082E594E00E943B0AC80123
:100E70000E94CA0660E08091F5040E9464038C2FF2
:100E800001C080E0DF91CF911F910F910895EFE2B3
:100E9000F4E025E021832FE022839483838376830B
:100EA0006583CF010C9400070F931F93CF93DF93BB
:100EB000EC018BE891E00E94500A882309F445C1B7
:100EC000E0918D018E2F90E0FC01E158F109ED30A9
:100ED000F10508F03AC1EC5CFF4F0C943B0E809199
:100EE00090018093140480918E01823019F0833038
:100EF000B9F12BC180911204893010F460E01BC05D
:100F000000E010E028E830E090911204892F8695E7
:100F100086958695181740F4602F88E00E94320B62
:100F20009C011F5F085FF0CF892F877039F0612F18
:100F3000660F660F660F0E94320B9C01223031054E
:100F400009F403C18889882309F4FFC067E571E0CB
:100F500082E594E0DF91CF911F910F910C941E0BCD
:100F60008D89882309F463C0BE016B5E7F4FFB014E
:100F700001900020E9F73197AF01461B570B81E044
:100F80000E94BC0D54C080918F01882301F1888993
:100F90008823E1F06AE471E082E594E00E94170A98
:100FA00040918E0150E060E070E020E182E594E045
:100FB0000E94D50A69E371E082E594E00E943B0A51
:100FC00062E171E082E594E00E941E0BFFCF809108
:100FD0008E01893009F0B9C049E060E971E084E030
:100FE000DF91CF911F910F910C94BC0D809114044F
:100FF0008093170481E08093300489E0809331046A
:101000008FE294E00E94000785E88D8FEC85FD85D6
:10101000309709F0099580911E0483FF96C085C022
:1010200086E88D8FEC85FD85309709F009956B89F1
:101030007C8989899A890E94470781E88D8FEC8590
:10104000FD85309709F481C0DF91CF911F910F91F9
:10105000099460918C01625020E030E0462F50E00E
:10106000241735070CF58091EF049091F004019658
:101070008F739927E091F104F091F2048E179F0786
:1010800081F0E091EF04F091F004E65BFE4FD901AE
:10109000A557BE4F14967C9170839093F004809373
:1010A000EF042F5F3F4FDCCFEE85FF85309709F4CB
:1010B0004CC08FE891E0DF91CF911F910F9109947F
:1010C00090918E0180911704890F2CC08889882304
:1010D00031F166EF70E082E594E00E94170A4091DA
:1010E0008E0150E060E070E02AE082E594E00E942A
:1010F000D50A60EE70E082E594E00E94170A409104
:101100008F0150E060E070E020E182E594E00E9411
:10111000D50A69E371E082E594E00E943B0A809180
:1011200017048F5F8093170410C080918A0181118A
:101130000CC0C1E0C093300483E1809331048FE29E
:1011400094E00E940007C0938A01DF91CF911F9124
:101150000F9108950F931F93CF93DF931F92CDB7F5
:10116000DEB78C0169838091170481110AC0C80120
:101170000E9454076AE070E080E090E00E94110451
:10118000F2CF80911E0483FF13C061E0CE0101966F
:101190000E94A8098091170481508093170463E28C
:1011A00070E080E090E00E94110481E090E005C0D2
:1011B000C8010E94540780E090E00F90DF91CF912A
:1011C0001F910F910895CF92DF92EF92FF920F93AC
:1011D0001F93CF93DF938C01C62F66ED70E082E5FD
:1011E00094E00E94170A4C2F50E060E070E02AE083
:1011F00082E594E00E94D50A6DEC70E082E594E00F
:101200000E94170A7801CC2ED12CC701801B910BAC
:101210008C159D0574F4F70161917F01E0915204F2
:10122000F09153040190F081E02D82E594E009955E
:10123000ECCF6AEC70E082E594E00E94170A780136
:10124000C701801B910B8C159D05A4F462E471E02D
:1012500082E594E00E943B0AF70141917F01042E50
:10126000000C550B660B770B20E182E594E00E94A1
:10127000D50AE6CF67EC70E082E594E00E941E0B91
:101280008091170481110BC086EF94E00E945407EF
:101290006AE070E080E090E00E941104F1CFF12C50
:1012A000CC2311F180911E0483FD05C086EF94E0EC
:1012B0000E945407F5CFDC2FC53108F0D4E16D2F23
:1012C000C8018F0D911D0E94A809809117048150BB
:1012D0008093170463E270E080E090E00E941104C4
:1012E000CD1B11F0FD0EDCCFDF91CF911F910F913F
:1012F000FF90EF90DF90CF900895CF92DF92EF9222
:10130000FF920F931F93CF93DF936C017A018B01B0
:10131000C0E0D0E0CE15DF0589F0D8016D918D01D8
:10132000D601ED91FC910190F081E02DC601099567
:10133000892B11F47E0102C02196ECCFC701DF9109
:10134000CF911F910F91FF90EF90DF90CF90089574
:10135000EF92FF921F93CF93DF93CDB7DEB76597E0
:101360000FB6F894DEBF0FBECDBFE0915004F091F0
:101370005104278130852230310519F024303105A0
:1013800069F5653158F5162FBC01E12EF12CA70146
:10139000CE0102960E94460E1E5F1093300485E136
:1013A0008093310483E080933204A701BE016E5F15
:1013B0007F4F83E394E00E94460E10925A058FE21D
:1013C00094E065960FB6F894DEBF0FBECDBFDF91F7
:1013D000CF911F91FF90EF900C94000780E06596ED
:1013E0000FB6F894DEBF0FBECDBFDF91CF911F9136
:1013F000FF90EF9008958230C8F4E82FF0E0EE0FF0
:10140000FF1FE45FFE4F29EC35E0318320838130FC
:1014100039F0809169008C7F80936900E89A089583
:1014200080916900837F80936900E99A0895EF9223
:10143000FF920F931F93CF93DF938C017B01C0E04A
:10144000D0E0F701EC0FFD1F6491662361F0D80135
:10145000ED91FC910190F081E02DC8010995892B57
:1014600011F02196EECFCE01DF91CF911F910F9118
:10147000FF90EF9008956115710579F0FB010190DF
:101480000020E9F73197AF01461B570BDC01ED91C6
:10149000FC910280F381E02D099480E090E00895B2
:1014A0000F931F93CF93DF93EC01F89410910C04EA
:1014B00000910B047894E0910B0480910C04E817E0
:1014C00059F181E28E9FF0011124ED5FFC4FDE01A6
:1014D00001900D928A95E1F780910B0490E00196BE
:1014E0008770992780930B0480910203882349F029
:1014F00066E471E082E594E00E943B0ACE010E941E
:10150000CA06812F90E0019687709927081306C0BC
:1015100081E00E94A50502C080E001C081E09A81BF
:101520009838A9F0993851F19638D1F5E6E2F4E00F
:1015300098E09E0FDF0118971C9211929E13FACF2C
:1015400010922E04909114049093170429C0FE0168
:101550003B96A6E2B4E0AE014D5E5F4F9F0128507E
:101560003109E90198819D0128503109E9019883E9
:1015700091919D93E417F50789F712C02B813C8167
:1015800030931904209318042D813E8130931B045D
:1015900020931A042F81388530931D0420931C0456
:1015A000DF91CF911F910F9108954F925F926F92AB
:1015B0007F92EF92FF920F931F93CF93DF93CDB75C
:1015C000DEB7A1970FB6F894DEBF0FBECDBF7C018A
:1015D000FA01CB0119A2223008F42AE08E010F5D36
:1015E0001F4F422E512C612C712CBF01A30192017F
:1015F0000E94190EF901CA01015011096A3014F450
:10160000605D01C0695CD8016C93232B242B252BD2
:1016100061F7B801C7010E943B0AA1960FB6F89482
:10162000DEBF0FBECDBFDF91CF911F910F91FF9015
:10163000EF907F906F905F904F9008950F931F935E
:10164000CF93DF93EC010E94170A8C0169E371E0EC
:10165000CE010E943B0A800F911FDF91CF911F9115
:101660000F910895EF92FF920F931F93CF93DF9303
:10167000F82E81E2689FE001112400E010E0E12CE7
:10168000EF1421F198012C0F3D1F6091100470910F
:101690001104620F731FFB013196449150E04E5FBD
:1016A0005F4F89E395E00E94100E89E395E00E9468
:1016B00000070F5D1F4F811107C06CEA74E082E5DF
:1016C00094E00E941E0B19C0E394DACFC0E087E1DA
:1016D00095E00E94500A8823D1F3CF5F80911905CD
:1016E000843859F490911B058FEF890F823010F4E4
:1016F000FC12EDCF892F90E002C081E890E0DF91ED
:10170000CF911F910F91FF90EF900895789484B539
:10171000826084BD84B5816084BD85B5826085BDED
:1017200085B5816085BD80916E00816080936E007B
:10173000109281008091810082608093810080916D
:10174000810081608093810080918000816080931E
:1017500080008091B10084608093B1008091B000DE
:1017600081608093B00080917A00846080937A00D9
:1017700080917A00826080937A0080917A00816003
:1017800080937A0080917A00806880937A0010922A
:10179000C10061E085E00E94B003E0916204F09135
:1017A000630482E08083E0915E04F0915F04108224
:1017B000E0916004F09161048FEC808310926A04E0
:1017C000E0916604F0916704C6E0C083E091640490
:1017D000F0916504808180618083E0916404F091E0
:1017E0006504808188608083E0916404F0916504E1
:1017F000808180688083E0916404F0916504808139
:101800008F7D808363E774E082E594E00E941E0B85
:1018100083EE98E0909305058093040580EA94E0B8
:101820009093030580930205ECE3F1E0ABE0B5E0B3
:1018300001900D92CA95E1F71092080510920705E4
:1018400080E590E090930A058093090580E091E09F
:1018500090930E0480930D0484E080930F048EEB2C
:1018600091E0909311048093100485E18093120419
:10187000A6E2B4E0EAEFF2E088E08E0FED012897EF
:1018800018821D9211928E13F9CF1092F9021092C4
:10189000F8021092F7021092F6028FEF8093F50291
:1018A0008093F4028093F3021092F2021092F102FC
:1018B0001092F0021092EF021092EE021092ED02DE
:1018C0001092EC021092EB021092EA0280910D0449
:1018D00090910E04909351048093500484E080937F
:1018E000E9028EEB91E09093E8028093E70285E1B4
:1018F0008093E6021092C602CFB7F8948091B701A8
:10190000811127C0E4EBF1E08491E0EAF1E09491E9
:10191000E82FF0E0EE0FFF1FE457FE4FA591B491C2
:10192000EC91E92321F461E08AE00E94640361E024
:101930008AE00E94B0038CB580618CBD8CB5806458
:101940008CBD61E08DE00E94B00361E08BE00E94FD
:10195000B0038091B7018F5F8093B701CFBF109222
:1019600002031092C3021092C40280E090E0FC01D6
:10197000E554FE4F118212828196883021E0920751
:10198000B1F710920B0410920C0480E090E0FC017F
:10199000E554FE4F118212828196883021E0920731
:1019A000B1F761E08091F3040E94B00362E080919E
:1019B000F4040E94B00361E08091F5040E94B0033A
:1019C00061E08091F3040E94640364E670E080E0CB
:1019D00090E00E94110460E08091F3040E9464038F
:1019E00061E08091F3040E94640360E08DE00E9456
:1019F000640360E08BE00E94640361E08091F50481
:101A00000E94640360E08DE00E9464038FEF809386
:101A1000BA018091F404082E000C990B82309105D4
:101A200019F41092BA0105C0039719F481E080936C
:101A3000BA016EE170E080E090E00E9411048091B4
:101A4000BA019FB7F894882349F0813011F482E0FD
:101A500006C082E08093B90180E001C081E020915E
:101A6000B801822B8093B8018091B901811103C024
:101A700081E08093B9019FBF8091BA010E94FB0968
:101A800061E080E00E94640386EF94E00E945407C6
:101A900061E085E00E94640360ED77E080E090E023
:101AA0000E94110460E085E00E94640360ED77E02D
:101AB00080E090E00E9411040E945A03E5CFCF938A
:101AC000DF93E2E5F4E01382128288EE93E0A0E077
:101AD000B0E084839583A683B78324E131E031832A
:101AE000208325EC30E03587248724EC30E03787ED
:101AF000268720EC30E0318B208B21EC30E0338BDB
:101B0000228B22EC30E0358B248B26EC30E0378BB7
:101B1000268B118E128E138E148EE6EFF4E0138254
:101B2000128284839583A683B78386E291E09183B2
:101B3000808381E0808B8AE08093F50482E080934B
:101B4000F40489E08093F3041786168615861486BC
:101B500088E0ABE0B5E0ED0119928A95E9F71092C3
:101B6000F2041092F1041092F0041092EF0486E84F
:101B7000858FDF91CF910895EF92FF920F931F937E
:101B8000CF93DF93CDB7DEB765970FB6F894DEBF7E
:101B90000FBECDBFE0915004F091510493E0899FB6
:101BA000E00DF11D112433979081913059F54531A5
:101BB00048F5142F082FE42EF12CA701CE01029630
:101BC0000E94460E1E5F109330048DE08093310416
:101BD00000933204A701BE016E5F7F4F83E394E060
:101BE0000E94460E8FE294E065960FB6F894DEBF31
:101BF0000FBECDBFDF91CF911F910F91FF90EF905E
:101C00000C94000780E065960FB6F894DEBF0FBE17
:101C1000CDBFDF91CF911F910F91FF90EF9008956D
:101C2000FB01DC0102C005900D9241505040D8F7F5
:101C30000895A1E21A2EAA1BBB1BFD010DC0AA1F0D
:101C4000BB1FEE1FFF1FA217B307E407F50720F025
:101C5000A21BB30BE40BF50B661F771F881F991FA0
:101C60001A9469F760957095809590959B01AC01E9
:101C7000BD01CF010895EE0FFF1F0590F491E02DF7
:101C8000099481E090E0F8940C944F0EFB01DC0184
:101C900002C001900D9241505040D8F70895F89439
:021CA000FFCF74
:101CA2000180000108000102000180004B044B0486
:101CB20000000000F1027D0989023803BA0298028D
:101CC200AC0200000000AA087D099D044C048F04A8
:101CD20064044D04203A0043000D0A00525A4F504A
:0A1CE200410020307800204500008A
:00000001FF
